{
  "contractName": "NST",
  "abi": [
    {
      "constant": true,
      "inputs": [
        {
          "name": "",
          "type": "uint256"
        }
      ],
      "name": "issues",
      "outputs": [
        {
          "name": "name",
          "type": "string"
        },
        {
          "name": "description",
          "type": "string"
        },
        {
          "name": "balance",
          "type": "uint256"
        },
        {
          "name": "owner",
          "type": "address"
        }
      ],
      "payable": false,
      "stateMutability": "view",
      "type": "function"
    },
    {
      "constant": true,
      "inputs": [
        {
          "name": "",
          "type": "uint256"
        }
      ],
      "name": "citizens",
      "outputs": [
        {
          "name": "",
          "type": "address"
        }
      ],
      "payable": false,
      "stateMutability": "view",
      "type": "function"
    },
    {
      "constant": true,
      "inputs": [
        {
          "name": "",
          "type": "address"
        }
      ],
      "name": "balances",
      "outputs": [
        {
          "name": "",
          "type": "uint256"
        }
      ],
      "payable": false,
      "stateMutability": "view",
      "type": "function"
    },
    {
      "constant": true,
      "inputs": [],
      "name": "citizenCount",
      "outputs": [
        {
          "name": "",
          "type": "uint256"
        }
      ],
      "payable": false,
      "stateMutability": "view",
      "type": "function"
    },
    {
      "constant": true,
      "inputs": [],
      "name": "currentSupply",
      "outputs": [
        {
          "name": "",
          "type": "uint256"
        }
      ],
      "payable": false,
      "stateMutability": "view",
      "type": "function"
    },
    {
      "constant": true,
      "inputs": [],
      "name": "issueCount",
      "outputs": [
        {
          "name": "",
          "type": "uint256"
        }
      ],
      "payable": false,
      "stateMutability": "view",
      "type": "function"
    },
    {
      "inputs": [],
      "payable": false,
      "stateMutability": "nonpayable",
      "type": "constructor"
    },
    {
      "anonymous": false,
      "inputs": [
        {
          "indexed": false,
          "name": "sender",
          "type": "address"
        },
        {
          "indexed": false,
          "name": "receiver",
          "type": "address"
        }
      ],
      "name": "Transfer",
      "type": "event"
    },
    {
      "anonymous": false,
      "inputs": [
        {
          "indexed": false,
          "name": "citizen",
          "type": "address"
        },
        {
          "indexed": false,
          "name": "balance",
          "type": "uint256"
        },
        {
          "indexed": false,
          "name": "currentSupply",
          "type": "uint256"
        }
      ],
      "name": "Distribution",
      "type": "event"
    },
    {
      "anonymous": false,
      "inputs": [
        {
          "indexed": false,
          "name": "currentSupply",
          "type": "uint256"
        }
      ],
      "name": "Reset",
      "type": "event"
    },
    {
      "anonymous": false,
      "inputs": [],
      "name": "NewIssue",
      "type": "event"
    },
    {
      "constant": false,
      "inputs": [
        {
          "name": "receiver",
          "type": "address"
        },
        {
          "name": "amount",
          "type": "uint256"
        }
      ],
      "name": "transfer",
      "outputs": [],
      "payable": false,
      "stateMutability": "nonpayable",
      "type": "function"
    },
    {
      "constant": false,
      "inputs": [
        {
          "name": "citizen",
          "type": "address"
        }
      ],
      "name": "register",
      "outputs": [],
      "payable": false,
      "stateMutability": "nonpayable",
      "type": "function"
    },
    {
      "constant": false,
      "inputs": [],
      "name": "distribute",
      "outputs": [],
      "payable": false,
      "stateMutability": "nonpayable",
      "type": "function"
    },
    {
      "constant": false,
      "inputs": [],
      "name": "reset",
      "outputs": [],
      "payable": false,
      "stateMutability": "nonpayable",
      "type": "function"
    },
    {
      "constant": false,
      "inputs": [
        {
          "name": "issueName",
          "type": "string"
        },
        {
          "name": "description",
          "type": "string"
        },
        {
          "name": "owner",
          "type": "address"
        }
      ],
      "name": "newIssue",
      "outputs": [],
      "payable": false,
      "stateMutability": "nonpayable",
      "type": "function"
    },
    {
      "constant": false,
      "inputs": [
        {
          "name": "id",
          "type": "uint256"
        },
        {
          "name": "amount",
          "type": "uint256"
        }
      ],
      "name": "vote",
      "outputs": [],
      "payable": false,
      "stateMutability": "nonpayable",
      "type": "function"
    }
  ],
  "bytecode": "0x608060405234801561001057600080fd5b5033600460006101000a81548173ffffffffffffffffffffffffffffffffffffffff021916908373ffffffffffffffffffffffffffffffffffffffff160217905550620f42406003819055506000600681905550611276806100736000396000f3fe6080604052600436106100ba576000357c0100000000000000000000000000000000000000000000000000000000900463ffffffff16806304e15de5146100bf57806309a34f001461021957806327e235e3146102945780634420e486146102f957806358fea9ae1461034a5780635b4c777d146104c9578063771282f6146104f457806398cf147a1461051f578063a9059cbb1461054a578063b384abef146105a5578063d826f88f146105ea578063e4fc6b6d14610601575b600080fd5b3480156100cb57600080fd5b506100f8600480360360208110156100e257600080fd5b8101908080359060200190929190505050610618565b6040518080602001806020018581526020018473ffffffffffffffffffffffffffffffffffffffff1673ffffffffffffffffffffffffffffffffffffffff168152602001838103835287818151815260200191508051906020019080838360005b83811015610174578082015181840152602081019050610159565b50505050905090810190601f1680156101a15780820380516001836020036101000a031916815260200191505b50838103825286818151815260200191508051906020019080838360005b838110156101da5780820151818401526020810190506101bf565b50505050905090810190601f1680156102075780820380516001836020036101000a031916815260200191505b50965050505050505060405180910390f35b34801561022557600080fd5b506102526004803603602081101561023c57600080fd5b81019080803590602001909291905050506107a7565b604051808273ffffffffffffffffffffffffffffffffffffffff1673ffffffffffffffffffffffffffffffffffffffff16815260200191505060405180910390f35b3480156102a057600080fd5b506102e3600480360360208110156102b757600080fd5b81019080803573ffffffffffffffffffffffffffffffffffffffff1690602001909291905050506107e5565b6040518082815260200191505060405180910390f35b34801561030557600080fd5b506103486004803603602081101561031c57600080fd5b81019080803573ffffffffffffffffffffffffffffffffffffffff1690602001909291905050506107fd565b005b34801561035657600080fd5b506104c76004803603606081101561036d57600080fd5b810190808035906020019064010000000081111561038a57600080fd5b82018360208201111561039c57600080fd5b803590602001918460018302840111640100000000831117156103be57600080fd5b91908080601f016020809104026020016040519081016040528093929190818152602001838380828437600081840152601f19601f8201169050808301925050505050505091929192908035906020019064010000000081111561042157600080fd5b82018360208201111561043357600080fd5b8035906020019184600183028401116401000000008311171561045557600080fd5b91908080601f016020809104026020016040519081016040528093929190818152602001838380828437600081840152601f19601f820116905080830192505050505050509192919290803573ffffffffffffffffffffffffffffffffffffffff1690602001909291905050506108bb565b005b3480156104d557600080fd5b506104de6109f1565b6040518082815260200191505060405180910390f35b34801561050057600080fd5b506105096109f7565b6040518082815260200191505060405180910390f35b34801561052b57600080fd5b506105346109fd565b6040518082815260200191505060405180910390f35b34801561055657600080fd5b506105a36004803603604081101561056d57600080fd5b81019080803573ffffffffffffffffffffffffffffffffffffffff16906020019092919080359060200190929190505050610a03565b005b3480156105b157600080fd5b506105e8600480360360408110156105c857600080fd5b810190808035906020019092919080359060200190929190505050610c3a565b005b3480156105f657600080fd5b506105ff610dbc565b005b34801561060d57600080fd5b50610616610ee4565b005b60058181548110151561062757fe5b9060005260206000209060040201600091509050806000018054600181600116156101000203166002900480601f0160208091040260200160405190810160405280929190818152602001828054600181600116156101000203166002900480156106d35780601f106106a8576101008083540402835291602001916106d3565b820191906000526020600020905b8154815290600101906020018083116106b657829003601f168201915b505050505090806001018054600181600116156101000203166002900480601f0160208091040260200160405190810160405280929190818152602001828054600181600116156101000203166002900480156107715780601f1061074657610100808354040283529160200191610771565b820191906000526020600020905b81548152906001019060200180831161075457829003601f168201915b5050505050908060020154908060030160009054906101000a900473ffffffffffffffffffffffffffffffffffffffff16905084565b6001818154811015156107b657fe5b906000526020600020016000915054906101000a900473ffffffffffffffffffffffffffffffffffffffff1681565b60006020528060005260406000206000915090505481565b60008060008373ffffffffffffffffffffffffffffffffffffffff1673ffffffffffffffffffffffffffffffffffffffff1681526020019081526020016000208190555060018190806001815401808255809150509060018203906000526020600020016000909192909190916101000a81548173ffffffffffffffffffffffffffffffffffffffff021916908373ffffffffffffffffffffffffffffffffffffffff16021790555050600160026000828254019250508190555050565b6005608060405190810160405280858152602001848152602001600081526020018373ffffffffffffffffffffffffffffffffffffffff1681525090806001815401808255809150509060018203906000526020600020906004020160009091929091909150600082015181600001908051906020019061093d9291906111a5565b50602082015181600101908051906020019061095a9291906111a5565b506040820151816002015560608201518160030160006101000a81548173ffffffffffffffffffffffffffffffffffffffff021916908373ffffffffffffffffffffffffffffffffffffffff16021790555050505060016006600082825401925050819055507f87dfb85c9bc61680d010a4391706dd47c6ea3c61095ecb1c1437f2c28f582c0f60405160405180910390a1505050565b60025481565b60035481565b60065481565b80806000803373ffffffffffffffffffffffffffffffffffffffff1673ffffffffffffffffffffffffffffffffffffffff1681526020019081526020016000205410151515610b06576040517f08c379a00000000000000000000000000000000000000000000000000000000081526004018080602001828103825260468152602001807f5472616e7366657220616d6f756e74206d75737420626520677265617465722081526020017f6f7220657175616c20746f207468652062616c616e6365206f6620746865206181526020017f646472657373000000000000000000000000000000000000000000000000000081525060600191505060405180910390fd5b816000803373ffffffffffffffffffffffffffffffffffffffff1673ffffffffffffffffffffffffffffffffffffffff16815260200190815260200160002060008282540392505081905550816000808573ffffffffffffffffffffffffffffffffffffffff1673ffffffffffffffffffffffffffffffffffffffff168152602001908152602001600020600082825401925050819055507f4853ae1b4d437c4255ac16cd3ceda3465975023f27cb141584cd9d44440fed823384604051808373ffffffffffffffffffffffffffffffffffffffff1673ffffffffffffffffffffffffffffffffffffffff1681526020018273ffffffffffffffffffffffffffffffffffffffff1673ffffffffffffffffffffffffffffffffffffffff1681526020019250505060405180910390a1505050565b80806000803373ffffffffffffffffffffffffffffffffffffffff1673ffffffffffffffffffffffffffffffffffffffff1681526020019081526020016000205410151515610d3d576040517f08c379a00000000000000000000000000000000000000000000000000000000081526004018080602001828103825260468152602001807f5472616e7366657220616d6f756e74206d75737420626520677265617465722081526020017f6f7220657175616c20746f207468652062616c616e6365206f6620746865206181526020017f646472657373000000000000000000000000000000000000000000000000000081525060600191505060405180910390fd5b816000803373ffffffffffffffffffffffffffffffffffffffff1673ffffffffffffffffffffffffffffffffffffffff1681526020019081526020016000206000828254039250508190555081600584815481101515610d9957fe5b906000526020600020906004020160020160008282540192505081905550505050565b60008090505b600180549050811015610e59576000806000600184815481101515610de357fe5b9060005260206000200160009054906101000a900473ffffffffffffffffffffffffffffffffffffffff1673ffffffffffffffffffffffffffffffffffffffff1673ffffffffffffffffffffffffffffffffffffffff168152602001908152602001600020819055508080600101915050610dc2565b600090505b600580549050811015610e9e576000600582815481101515610e7c57fe5b9060005260206000209060040201600201819055508080600101915050610e5e565b620f42406003819055507f01c3cbb0d62726ab09d163873ebf9aed99dd8dc08e57bc938f458132fd178cf66003546040518082815260200191505060405180910390a150565b600460009054906101000a900473ffffffffffffffffffffffffffffffffffffffff1673ffffffffffffffffffffffffffffffffffffffff163373ffffffffffffffffffffffffffffffffffffffff16141515610fcf576040517f08c379a00000000000000000000000000000000000000000000000000000000081526004018080602001828103825260238152602001807f4f6e6c792074686520686f73742063616e2075736520746869732066756e637481526020017f696f6e000000000000000000000000000000000000000000000000000000000081525060400191505060405180910390fd5b60008090505b6001805490508110156111a2576001600080600184815481101515610ff657fe5b9060005260206000200160009054906101000a900473ffffffffffffffffffffffffffffffffffffffff1673ffffffffffffffffffffffffffffffffffffffff1673ffffffffffffffffffffffffffffffffffffffff1681526020019081526020016000208190555060016003600082825403925050819055507fa8ee3e5c0b1fd681042265199e8b28cf463b81bc21f6658d4c73e741aeabd3f56001828154811015156110a057fe5b9060005260206000200160009054906101000a900473ffffffffffffffffffffffffffffffffffffffff166000806001858154811015156110dd57fe5b9060005260206000200160009054906101000a900473ffffffffffffffffffffffffffffffffffffffff1673ffffffffffffffffffffffffffffffffffffffff1673ffffffffffffffffffffffffffffffffffffffff16815260200190815260200160002054600354604051808473ffffffffffffffffffffffffffffffffffffffff1673ffffffffffffffffffffffffffffffffffffffff168152602001838152602001828152602001935050505060405180910390a18080600101915050610fd5565b50565b828054600181600116156101000203166002900490600052602060002090601f016020900481019282601f106111e657805160ff1916838001178555611214565b82800160010185558215611214579182015b828111156112135782518255916020019190600101906111f8565b5b5090506112219190611225565b5090565b61124791905b8082111561124357600081600090555060010161122b565b5090565b9056fea165627a7a72305820d008427e0e435efcd34527c2cc1de86e1758e333299b231b6585c146d496bc400029",
  "source": "pragma solidity ^0.5.0;\ncontract NST {\n\n    mapping (address => uint256) public balances;\n\n    address[] public citizens;\n    uint256 public citizenCount;\n\n    uint256 public currentSupply;\n    address owner;\n\n    Issue[] public issues;\n    uint256 public issueCount;\n\n    struct Issue {\n      string name;\n      string description;\n      uint256 balance;\n      address owner;\n    }\n\n    constructor() public {\n      owner = msg.sender;\n      currentSupply = 1000000;\n      issueCount = 0;\n    }\n\n    function transfer(address receiver, uint256 amount) public\n    checkBalance(amount)\n    {\n      balances[msg.sender] -= amount;\n      balances[receiver] += amount;\n      emit Transfer(msg.sender, receiver);\n    }\n\n    function register(address citizen) public {\n      balances[citizen] = 0;\n      citizens.push(citizen);\n      citizenCount += 1;\n    }\n\n    function distribute()\n    public\n    onlyOwner\n    {\n      uint index;\n      for (index = 0; index < citizens.length; index++) {\n        balances[citizens[index]] = 1;\n        currentSupply -= 1;\n        emit Distribution(citizens[index], balances[citizens[index]], currentSupply);\n      }\n    }\n\n    function reset() public {\n      uint index;\n      for (index = 0; index < citizens.length; index++) {\n        balances[citizens[index]] = 0;\n      }\n\n      for (index = 0; index < issues.length; index++) {\n        issues[index].balance = 0;\n      }\n      currentSupply = 1000000;\n      emit Reset(currentSupply);\n    }\n\n    function newIssue(string memory issueName, string memory description, address owner) public {\n      issues.push(Issue(issueName, description, 0, owner));\n      issueCount += 1;\n      emit NewIssue();\n    }\n\n    function vote(uint256 id, uint256 amount) public\n      checkBalance(amount)\n    {\n      balances[msg.sender] -= amount;\n      issues[id].balance += amount;\n    }\n    \n    event Transfer (address sender, address receiver);\n    event Distribution(address citizen, uint256 balance, uint256 currentSupply);\n    event Reset (uint currentSupply);\n    event NewIssue ();\n\n    modifier onlyOwner() {require(msg.sender == owner, \"Only the host can use this function\"); _;}\n    modifier checkBalance(uint256 amount) {\n      require(\n        balances[msg.sender] >= amount,\n        \"Transfer amount must be greater or equal to the balance of the address\"\n      );\n      _;\n    }\n}\n",
  "sourcePath": "/Users/Keegan/Documents/Code/Blockchain/ethereum/nsc/contracts/NST.sol",
  "compiler": {
    "name": "solc",
    "version": "0.5.0+commit.1d4f565a.Emscripten.clang"
  },
  "schemaVersion": "3.0.9",
  "updatedAt": "2019-05-25T23:50:31.904Z",
  "devdoc": {
    "methods": {}
  },
  "userdoc": {
    "methods": {}
  }
}