{
  "contractName": "NST",
  "abi": [
    {
      "constant": true,
      "inputs": [
        {
          "name": "",
          "type": "uint256"
        }
      ],
      "name": "issues",
      "outputs": [
        {
          "name": "name",
          "type": "string"
        },
        {
          "name": "description",
          "type": "string"
        },
        {
          "name": "balance",
          "type": "uint256"
        },
        {
          "name": "owner",
          "type": "address"
        }
      ],
      "payable": false,
      "stateMutability": "view",
      "type": "function"
    },
    {
      "constant": true,
      "inputs": [
        {
          "name": "",
          "type": "uint256"
        }
      ],
      "name": "citizens",
      "outputs": [
        {
          "name": "",
          "type": "address"
        }
      ],
      "payable": false,
      "stateMutability": "view",
      "type": "function"
    },
    {
      "constant": true,
      "inputs": [
        {
          "name": "",
          "type": "address"
        }
      ],
      "name": "balances",
      "outputs": [
        {
          "name": "",
          "type": "uint256"
        }
      ],
      "payable": false,
      "stateMutability": "view",
      "type": "function"
    },
    {
      "inputs": [],
      "payable": false,
      "stateMutability": "view",
      "type": "function",
      "constant": true,
      "name": "currentSupply",
      "outputs": [
        {
          "name": "",
          "type": "uint256"
        }
      ]
    },
    {
      "anonymous": false,
      "inputs": [
        {
          "indexed": false,
          "name": "owner",
          "type": "address"
        },
        {
          "indexed": false,
          "name": "currentSupply",
          "type": "uint256"
        }
      ],
      "name": "Initialization",
      "type": "constructor",
      "payable": false,
      "stateMutability": "nonpayable"
    },
    {
      "anonymous": false,
      "inputs": [
        {
          "indexed": false,
          "name": "owner",
          "type": "address"
        },
        {
          "indexed": false,
          "name": "currentSupply",
          "type": "uint256"
        }
      ],
      "name": "Initialization",
      "type": "event"
    },
    {
      "anonymous": false,
      "inputs": [
        {
          "indexed": false,
          "name": "sender",
          "type": "address"
        },
        {
          "indexed": false,
          "name": "receiver",
          "type": "address"
        },
        {
          "indexed": false,
          "name": "currentSupply",
          "type": "uint256"
        }
      ],
      "name": "Transfer",
      "type": "event"
    },
    {
      "anonymous": false,
      "inputs": [
        {
          "indexed": false,
          "name": "citizen",
          "type": "address"
        },
        {
          "indexed": false,
          "name": "balance",
          "type": "uint256"
        },
        {
          "indexed": false,
          "name": "currentSupply",
          "type": "uint256"
        }
      ],
      "name": "Distribution",
      "type": "event"
    },
    {
      "anonymous": false,
      "inputs": [
        {
          "indexed": false,
          "name": "currentSupply",
          "type": "uint256"
        }
      ],
      "name": "Reset",
      "type": "event"
    },
    {
      "constant": false,
      "inputs": [
        {
          "name": "receiver",
          "type": "address"
        },
        {
          "name": "amount",
          "type": "uint256"
        }
      ],
      "name": "NewIssue",
      "outputs": [],
      "payable": false,
      "stateMutability": "nonpayable",
      "type": "event",
      "anonymous": false
    },
    {
      "constant": false,
      "inputs": [
        {
          "name": "receiver",
          "type": "address"
        },
        {
          "name": "amount",
          "type": "uint256"
        }
      ],
      "name": "transfer",
      "outputs": [],
      "payable": false,
      "stateMutability": "nonpayable",
      "type": "function"
    },
    {
      "constant": false,
      "inputs": [
        {
          "name": "citizen",
          "type": "address"
        }
      ],
      "name": "register",
      "outputs": [],
      "payable": false,
      "stateMutability": "nonpayable",
      "type": "function"
    },
    {
      "constant": false,
      "inputs": [],
      "name": "distribute",
      "outputs": [],
      "payable": false,
      "stateMutability": "nonpayable",
      "type": "function"
    },
    {
      "constant": false,
      "inputs": [
        {
          "name": "issueName",
          "type": "string"
        },
        {
          "name": "description",
          "type": "string"
        },
        {
          "name": "owner",
          "type": "address"
        }
      ],
      "name": "reset",
      "outputs": [],
      "payable": false,
      "stateMutability": "nonpayable",
      "type": "function"
    },
    {
      "constant": false,
      "inputs": [
        {
          "name": "issueName",
          "type": "string"
        },
        {
          "name": "description",
          "type": "string"
        },
        {
          "name": "owner",
          "type": "address"
        }
      ],
      "name": "newIssue",
      "outputs": [],
      "payable": false,
      "stateMutability": "nonpayable",
      "type": "function"
    },
    {
      "constant": false,
      "inputs": [
        {
          "name": "id",
          "type": "uint256"
        },
        {
          "name": "amount",
          "type": "uint256"
        }
      ],
      "name": "vote",
      "outputs": [],
      "payable": false,
      "stateMutability": "nonpayable",
      "type": "function"
    }
  ],
  "bytecode": "0x608060405234801561001057600080fd5b5033600360006101000a81548173ffffffffffffffffffffffffffffffffffffffff021916908373ffffffffffffffffffffffffffffffffffffffff160217905550620f42406002819055506111dc8061006b6000396000f3fe6080604052600436106100a4576000357c0100000000000000000000000000000000000000000000000000000000900463ffffffff16806304e15de5146100a957806309a34f001461020357806327e235e31461027e5780634420e486146102e357806358fea9ae14610334578063771282f6146104b3578063a9059cbb146104de578063b384abef14610539578063d826f88f1461057e578063e4fc6b6d14610595575b600080fd5b3480156100b557600080fd5b506100e2600480360360208110156100cc57600080fd5b81019080803590602001909291905050506105ac565b6040518080602001806020018581526020018473ffffffffffffffffffffffffffffffffffffffff1673ffffffffffffffffffffffffffffffffffffffff168152602001838103835287818151815260200191508051906020019080838360005b8381101561015e578082015181840152602081019050610143565b50505050905090810190601f16801561018b5780820380516001836020036101000a031916815260200191505b50838103825286818151815260200191508051906020019080838360005b838110156101c45780820151818401526020810190506101a9565b50505050905090810190601f1680156101f15780820380516001836020036101000a031916815260200191505b50965050505050505060405180910390f35b34801561020f57600080fd5b5061023c6004803603602081101561022657600080fd5b810190808035906020019092919050505061073b565b604051808273ffffffffffffffffffffffffffffffffffffffff1673ffffffffffffffffffffffffffffffffffffffff16815260200191505060405180910390f35b34801561028a57600080fd5b506102cd600480360360208110156102a157600080fd5b81019080803573ffffffffffffffffffffffffffffffffffffffff169060200190929190505050610779565b6040518082815260200191505060405180910390f35b3480156102ef57600080fd5b506103326004803603602081101561030657600080fd5b81019080803573ffffffffffffffffffffffffffffffffffffffff169060200190929190505050610791565b005b34801561034057600080fd5b506104b16004803603606081101561035757600080fd5b810190808035906020019064010000000081111561037457600080fd5b82018360208201111561038657600080fd5b803590602001918460018302840111640100000000831117156103a857600080fd5b91908080601f016020809104026020016040519081016040528093929190818152602001838380828437600081840152601f19601f8201169050808301925050505050505091929192908035906020019064010000000081111561040b57600080fd5b82018360208201111561041d57600080fd5b8035906020019184600183028401116401000000008311171561043f57600080fd5b91908080601f016020809104026020016040519081016040528093929190818152602001838380828437600081840152601f19601f820116905080830192505050505050509192919290803573ffffffffffffffffffffffffffffffffffffffff16906020019092919050505061083e565b005b3480156104bf57600080fd5b506104c8610963565b6040518082815260200191505060405180910390f35b3480156104ea57600080fd5b506105376004803603604081101561050157600080fd5b81019080803573ffffffffffffffffffffffffffffffffffffffff16906020019092919080359060200190929190505050610969565b005b34801561054557600080fd5b5061057c6004803603604081101561055c57600080fd5b810190808035906020019092919080359060200190929190505050610ba0565b005b34801561058a57600080fd5b50610593610d22565b005b3480156105a157600080fd5b506105aa610e4a565b005b6004818154811015156105bb57fe5b9060005260206000209060040201600091509050806000018054600181600116156101000203166002900480601f0160208091040260200160405190810160405280929190818152602001828054600181600116156101000203166002900480156106675780601f1061063c57610100808354040283529160200191610667565b820191906000526020600020905b81548152906001019060200180831161064a57829003601f168201915b505050505090806001018054600181600116156101000203166002900480601f0160208091040260200160405190810160405280929190818152602001828054600181600116156101000203166002900480156107055780601f106106da57610100808354040283529160200191610705565b820191906000526020600020905b8154815290600101906020018083116106e857829003601f168201915b5050505050908060020154908060030160009054906101000a900473ffffffffffffffffffffffffffffffffffffffff16905084565b60018181548110151561074a57fe5b906000526020600020016000915054906101000a900473ffffffffffffffffffffffffffffffffffffffff1681565b60006020528060005260406000206000915090505481565b60008060008373ffffffffffffffffffffffffffffffffffffffff1673ffffffffffffffffffffffffffffffffffffffff1681526020019081526020016000208190555060018190806001815401808255809150509060018203906000526020600020016000909192909190916101000a81548173ffffffffffffffffffffffffffffffffffffffff021916908373ffffffffffffffffffffffffffffffffffffffff1602179055505050565b6004608060405190810160405280858152602001848152602001600081526020018373ffffffffffffffffffffffffffffffffffffffff168152509080600181540180825580915050906001820390600052602060002090600402016000909192909190915060008201518160000190805190602001906108c092919061110b565b5060208201518160010190805190602001906108dd92919061110b565b506040820151816002015560608201518160030160006101000a81548173ffffffffffffffffffffffffffffffffffffffff021916908373ffffffffffffffffffffffffffffffffffffffff1602179055505050507f87dfb85c9bc61680d010a4391706dd47c6ea3c61095ecb1c1437f2c28f582c0f60405160405180910390a1505050565b60025481565b80806000803373ffffffffffffffffffffffffffffffffffffffff1673ffffffffffffffffffffffffffffffffffffffff1681526020019081526020016000205410151515610a6c576040517f08c379a00000000000000000000000000000000000000000000000000000000081526004018080602001828103825260468152602001807f5472616e7366657220616d6f756e74206d75737420626520677265617465722081526020017f6f7220657175616c20746f207468652062616c616e6365206f6620746865206181526020017f646472657373000000000000000000000000000000000000000000000000000081525060600191505060405180910390fd5b816000803373ffffffffffffffffffffffffffffffffffffffff1673ffffffffffffffffffffffffffffffffffffffff16815260200190815260200160002060008282540392505081905550816000808573ffffffffffffffffffffffffffffffffffffffff1673ffffffffffffffffffffffffffffffffffffffff168152602001908152602001600020600082825401925050819055507f4853ae1b4d437c4255ac16cd3ceda3465975023f27cb141584cd9d44440fed823384604051808373ffffffffffffffffffffffffffffffffffffffff1673ffffffffffffffffffffffffffffffffffffffff1681526020018273ffffffffffffffffffffffffffffffffffffffff1673ffffffffffffffffffffffffffffffffffffffff1681526020019250505060405180910390a1505050565b80806000803373ffffffffffffffffffffffffffffffffffffffff1673ffffffffffffffffffffffffffffffffffffffff1681526020019081526020016000205410151515610ca3576040517f08c379a00000000000000000000000000000000000000000000000000000000081526004018080602001828103825260468152602001807f5472616e7366657220616d6f756e74206d75737420626520677265617465722081526020017f6f7220657175616c20746f207468652062616c616e6365206f6620746865206181526020017f646472657373000000000000000000000000000000000000000000000000000081525060600191505060405180910390fd5b816000803373ffffffffffffffffffffffffffffffffffffffff1673ffffffffffffffffffffffffffffffffffffffff1681526020019081526020016000206000828254039250508190555081600484815481101515610cff57fe5b906000526020600020906004020160020160008282540192505081905550505050565b60008090505b600180549050811015610dbf576000806000600184815481101515610d4957fe5b9060005260206000200160009054906101000a900473ffffffffffffffffffffffffffffffffffffffff1673ffffffffffffffffffffffffffffffffffffffff1673ffffffffffffffffffffffffffffffffffffffff168152602001908152602001600020819055508080600101915050610d28565b600090505b600480549050811015610e04576000600482815481101515610de257fe5b9060005260206000209060040201600201819055508080600101915050610dc4565b620f42406002819055507f01c3cbb0d62726ab09d163873ebf9aed99dd8dc08e57bc938f458132fd178cf66002546040518082815260200191505060405180910390a150565b600360009054906101000a900473ffffffffffffffffffffffffffffffffffffffff1673ffffffffffffffffffffffffffffffffffffffff163373ffffffffffffffffffffffffffffffffffffffff16141515610f35576040517f08c379a00000000000000000000000000000000000000000000000000000000081526004018080602001828103825260238152602001807f4f6e6c792074686520686f73742063616e2075736520746869732066756e637481526020017f696f6e000000000000000000000000000000000000000000000000000000000081525060400191505060405180910390fd5b60008090505b600180549050811015611108576001600080600184815481101515610f5c57fe5b9060005260206000200160009054906101000a900473ffffffffffffffffffffffffffffffffffffffff1673ffffffffffffffffffffffffffffffffffffffff1673ffffffffffffffffffffffffffffffffffffffff1681526020019081526020016000208190555060016002600082825403925050819055507fa8ee3e5c0b1fd681042265199e8b28cf463b81bc21f6658d4c73e741aeabd3f560018281548110151561100657fe5b9060005260206000200160009054906101000a900473ffffffffffffffffffffffffffffffffffffffff1660008060018581548110151561104357fe5b9060005260206000200160009054906101000a900473ffffffffffffffffffffffffffffffffffffffff1673ffffffffffffffffffffffffffffffffffffffff1673ffffffffffffffffffffffffffffffffffffffff16815260200190815260200160002054600254604051808473ffffffffffffffffffffffffffffffffffffffff1673ffffffffffffffffffffffffffffffffffffffff168152602001838152602001828152602001935050505060405180910390a18080600101915050610f3b565b50565b828054600181600116156101000203166002900490600052602060002090601f016020900481019282601f1061114c57805160ff191683800117855561117a565b8280016001018555821561117a579182015b8281111561117957825182559160200191906001019061115e565b5b509050611187919061118b565b5090565b6111ad91905b808211156111a9576000816000905550600101611191565b5090565b9056fea165627a7a723058201a3f61a08d6f12e7147b83092f992e50509d978958865299099471b4d8b5730e0029",
  "source": "pragma solidity ^0.5.0;\ncontract NST {\n\n    mapping (address => uint256) public balances;\n\n    address[] public citizens;\n    uint256 public currentSupply;\n    address owner;\n\n    Issue[] public issues;\n\n    struct Issue {\n      string name;\n      string description;\n      uint256 balance;\n      address owner;\n    }\n\n    constructor() public {\n      owner = msg.sender;\n      currentSupply = 1000000;\n    }\n\n    function transfer(address receiver, uint256 amount) public\n    checkBalance(amount)\n    {\n      balances[msg.sender] -= amount;\n      balances[receiver] += amount;\n      emit Transfer(msg.sender, receiver);\n    }\n\n    function register(address citizen) public {\n      balances[citizen] = 0;\n      citizens.push(citizen);\n    }\n\n    function distribute()\n    public\n    onlyOwner\n    {\n      uint index;\n      for (index = 0; index < citizens.length; index++) {\n        balances[citizens[index]] = 1;\n        currentSupply -= 1;\n        emit Distribution(citizens[index], balances[citizens[index]], currentSupply);\n      }\n    }\n\n    function reset() public {\n      uint index;\n      for (index = 0; index < citizens.length; index++) {\n        balances[citizens[index]] = 0;\n      }\n\n      for (index = 0; index < issues.length; index++) {\n        issues[index].balance = 0;\n      }\n      currentSupply = 1000000;\n      emit Reset(currentSupply);\n    }\n\n    function newIssue(string memory issueName, string memory description, address owner) public {\n      issues.push(Issue(issueName, description, 0, owner));\n      emit NewIssue();\n    }\n\n    function vote(uint256 id, uint256 amount) public\n      checkBalance(amount)\n    {\n      balances[msg.sender] -= amount;\n      issues[id].balance += amount;\n    }\n\n    event Initialization (address owner, uint256 currentSupply);\n    event Transfer (address sender, address receiver);\n    event Distribution(address citizen, uint256 balance, uint256 currentSupply);\n    event Reset (uint currentSupply);\n    event NewIssue ();\n\n    modifier onlyOwner() {require(msg.sender == owner, \"Only the host can use this function\"); _;}\n    modifier checkBalance(uint256 amount) {\n      require(\n        balances[msg.sender] >= amount,\n        \"Transfer amount must be greater or equal to the balance of the address\"\n      );\n      _;\n    }\n}\n",
  "sourcePath": "/Users/Keegan/Documents/Code/Blockchain/ethereum/nsc/contracts/NST.sol",
  "compiler": {
    "name": "solc",
    "version": "0.5.0+commit.1d4f565a.Emscripten.clang"
  },
  "schemaVersion": "3.0.9",
  "updatedAt": "2019-05-25T18:09:19.503Z",
  "devdoc": {
    "methods": {}
  },
  "userdoc": {
    "methods": {}
  }
}